:020000040000fa
:080000000002040000000000f2
:020000040000fa
:10000800d2020000d2020000d2020000d202000098
:10001800d2020000d2020000d2020000d202000088
:10002800d2020000d2020000d2020000d202000078
:10003800d2020000d2020000d2020000d202000068
:020000040000fa
:10040000cf2b26000eff2d000e01880000000000fb
:10041000000020000000e000020032000001200087
:10042000200288000c000700204b21000100200062
:100430000f000700000020000000e0000200320072
:100440000000020000000000fc0e0200000000009e
:100450000040da000000fe00200020000000e00064
:100460000200320010002000900188000000060009
:10047000a1028800800078000000eb001a0037001d
:10048000e280400054a0b4009101ba00e280400034
:1004900054a0b4009102ba00e280400054a0b4001d
:1004a0000002eb00472bde00f507b200a601880032
:1004b000602ce10008003a000049eb000201e8006e
:1004c000020039003420ec0002f0a0008301e900b2
:1004d000f9ff3e00040037006128e100010032000e
:1004e0000082eb00040007001101ba000200e000e6
:1004f000e3ff3a000000060004d0a300e20f490029
:100500001c003900810278003549ba000201e80078
:10051000020039003420ec0002f0a0008301e90061
:100520000f0032002549ba000201e800020039003c
:100530003420ec0002f0a0008301e9000800320042
:100540000400e0000600320015c9ba000201e8000c
:10055000020039003420ec0002f0a0008301e90021
:100560008180e80054a0b4000300e000e2ff3a00fc
:10057000000006009102ba00055978008301e900e5
:10058000f7ff3200c82ade00055978008301e90030
:10059000f3ff32000400e000f1ff320011d9ba008d
:1005a000eeff37000040da000000fe000a00fa000b
:1005b000e20f500022003e00d4158300e10f5200ec
:1005c0000600320087232000462320002423200039
:1005d00005232000e08f530004003a00872220000a
:1005e00046222000242220000522200000002800ae
:1005f0001500600003003a00800b78000700280017
:10060000958a7300054020009482620001003a0040
:1006100014a0a0008202780006003700940378003e
:100620000710b200fdff3200b103fb00070b78009a
:100630008502e900e08f5200f8ff3a000800370019
:10064000340020001007980032079800040f78004b
:10065000210798000e007800800407003e019000fa
:10066000020078000080fa00000006000168a9007e
:10067000670260000188a9004c22dd000000fa003a
:10068000f5ff28000080fa00264280008682620082
:100690008502720000027800254288000407b2003b
:1006a00085ff2f004422de003642800086826200f1
:1006b0008502720068026000354288004322de0035
:1006c000f57f2f0061026200064180008682620091
:1006d0004b22dd000008b200850272004700de00f8
:1006e0000541880061006000f4ff2e004c00dd0031
:1006f0000541800005026200040270000441880088
:1007000000000600421188000000fa000011880075
:100710000080fa001111880000000600839f680025
:100720000100e00002003d0060001000e0801800c1
:100730000300e00002003d0060011100e0811900ab
:10074000050007004f00e00002003b0060001000c1
:10075000e0801800000006006022b80006022000b9
:100760000000d0008180d2000482d2008582d200b5
:100770000000a0000202520083825a0003003100f0
:100780000202420083824a000000a1000603e90041
:10079000f3ff3a00000006000000fa00889fbe0048
:1007a0000004be00050037000000fb00890078004f
:1007b0001c000700e10f40000400320038407800c0
:1007c000e04f5000f8ff3a000000eb004f04be007d
:1007d0000080fa0000000600a12926000000fa00af
:1007e000881f7800ecff0700a1292600000478008c
:1007f000a00020000b000700080078004f047800dc
:100800000080fa0000000600a02926000000fa007f
:1008100068015700ceb89700480007000080fa0032
:10082000000006000000fa00889fbe000104780066
:100830008084eb0038029000e20262003b0032004c
:1008400004037800980290000620b20002003a00eb
:10085000e08f520035003a000490a0008004780038
:1008600034049800f90fb200e08f520002003a0001
:10087000a8029000050c7800ea8f540005003a00a9
:100880000408b20003003a0088007800d00020007d
:10089000e4ff070018029000d8029000850f520074
:1008a0000b0032000402e80015c0b30014049800e5
:1008b00018027800094a7800040ce800442b26004e
:1008c000054a7800ea8f540018003a000500370006
:1008d0000940780088007800a003070080047800b1
:1008e00012003700380290000410b2000f003200ee
:1008f00018019000a8009000480090002bff07000e
:1009000018029000840f500004003200380290005a
:100910000403b300340498008084eb000002eb0071
:100920001404980028029000040c78000900780054
:100930004f04be000080fa00000006003a00fa00f2
:10094000889fbe00011798008a9fbe00421798003a
:100950008c9fbe00800678000000eb0060179800b6
:10096000730337008e10900054c2b3008100e8007a
:1009700001179800844f500006003a0001027800e9
:100980000006eb0001c3b30000c2b300b7c2b3005e
:10099000100037003d0290000404b2000400320051
:1009a0001d027800004a7800840ee8000500370038
:1009b0000000fb008d0078009aff0700e10f400067
:1009c0005b0332006e1190000201e800621798008c
:1009d0005703370084027800d3c2b3003443780051
:1009e000834f53000900320005003c00804f530044
:1009f00008003200874f53000c003a000700370010
:100a0000814f530009003a00060037000c30a00067
:100a1000f0ff37000c00a000eeff37000c10a00024
:100a2000ecff37000c20a000eaff370062026600ee
:100a3000010032000c00a1006802660001003200d3
:100a40000c20a1000602fb000403b100e90f5200d4
:100a50000c003e00050378000002eb00b602fb002c
:100a6000ea22b9000503b1009603fb0004824200ac
:100a70000703b10086027800e98f5300f7ff3600c4
:100a8000080037000002eb00a7c2b300874f5300f5
:100a900004003a004e1390008502e80046027800f8
:100aa000461798008003eb00e6c2b3005717980082
:100ab000954f13000c003a000ce0a0006443530073
:100ac000d54f1300030032000503780007007800bb
:100ad000090037004e1490008502e800c804780031
:100ae0004817980059179800050378000900370047
:100af000ea00b9000080430086027800b603fb00dc
:100b00000703b100e98f5300f9ff36005017980032
:100b1000f5ff3700b6427800cbc6b3000617980041
:100b20008bcf5200250032000f003c0036c6b300c8
:100b300086cf5200a400320004003c00e0cf5200f7
:100b4000000332006b4353000f00370046c6b3006a
:100b500086cf5200170032006543430086cf520013
:100b6000b7003a001300370036c7b30086cf5200f3
:100b70001f00320007003c006443530086cf520040
:100b8000140032000643e80086cf5200ac003a0061
:100b90001300370056c7b30086cf5200ad003200b5
:100ba0006343430086cf5200a5003a00054f78000a
:100bb0000d003700054f7800a8003700f0036600ed
:100bc0000501200001003200050028000c8672009b
:100bd000d0ff3700054f78000c60a0009f00370061
:100be000054f78000c50a0000c70a0009b0037004f
:100bf0004e109000054f7800c00278004017980012
:100c000075179800e08f520002003a006228260013
:100c1000721798007e1390008002eb0001003700ed
:100c20008502e800850343008041eb0097cf110067
:100c3000fbff3a00051f9800de129000e08f520083
:100c4000050032000e1b9000868f5200020031001a
:100c500085037800071f98008e1a90000004eb00af
:100c6000850f520001003600050452006806660038
:100c700009c2b300110032002d0037003d02900080
:100c80000404b200040032001d027800094a780012
:100c9000840ee800050037008d0078000002200077
:100ca000e0fe0700e10f4000030032006e159000e7
:100cb0000a05e8006a1798000804e900e00f5400ec
:100cc000eeff3a000084eb0019003700bd029000ef
:100cd0000504b20009003200880278009d03780004
:100ce00035437800864b780005047800870ee800cd
:100cf000e04f53000a003a001300370088027800e2
:100d00008d0078003500fb00441f98000504780032
:100d1000c4fe07004e1a9000e10f40000a003200a6
:100d20006e1090000000e800601798000600370081
:100d30000c027800080678007e1490008e1c90004b
:100d40001e1d9000ae1d9000890278008504e90008
:100d5000e08f5200ddff3a0078179800091f9800d5
:100d60001a1f98002b1f98000c04780004067800c6
:100d7000e00f56006e02320009c2b3006e169000fa
:100d80000e0037003d0290000404b200040032005f
:100d90001d027800094a7800840ee800050037003b
:100da0008d007800000220009efe0700e10f400049
:100db000010032000c06e8000804e900e00f5400ce
:100dc000f0ff3a0059023700ce1090007003660021
:100dd0004104780041179800cfc4de00090578006f
:100de0008a0578000800be000a01be004800de0047
:100df000c80add0000807200004f7800e00f530049
:100e000009003200e04f500007003200e14f40007f
:100e1000050032002600200010479800284798005f
:100e2000061f98000300370017002000071f9800d6
:100e3000184798000e04e800781798007eff3700e6
:100e40001a002000054f78007e1798000a1f9800ae
:100e500079ff3700054f78000c0cb3008c02780046
:100e6000050cb2003b003a00e00f560005003d00c3
:100e7000ce1290004501be004500be004517980007
:100e80000f003700f0026600120032004e1490008e
:100e90004803be0046079800570798004817980077
:100ea00098029000cfaade006507980075079800a9
:100eb0004e009000de0090006e019000fe01900058
:100ec00070179800011f9800121f9800231f9800a8
:100ed0000b003700ce109000c102780005047800a6
:100ee000cfc4de00090578008a0578004117980014
:100ef00078179800091f98001a1f98002b1f980058
:100f00007e1090008e1890001e199000ae1990006f
:100f1000e00f5000e08f5800e00f5900e08f5900bb
:100f200032003d006000b8006011b8007e149000ef
:100f30008e1c90001e1d9000ae1d90003c00b30062
:100f400008045000898458000a0559008b8559000f
:100f500022003700e00f560005003d00ce12900041
:100f60004501be004500be00451798000f00370040
:100f7000f0026600120032004e1490008004eb0074
:100f80004803be000005eb00460f9800570f98007d
:100f9000690f98007a0f98004e089000de089000c4
:100fa0006e099000fe09900048179800701798008d
:100fb000011f9800121f9800231f98000b00370094
:100fc000ce109000c1027800411798000504780007
:100fd000090020000a0020000b002000781798006c
:100fe000091f98001a1f98002b1f9800de1490000c
:100ff000e08f54000d003a001a0020007e1090008f
:101000008e1890001e199000ae1990005a17980083
:10101000e00f5000e08f5800e00f5900e08f5900ba
:10102000020032008000eb00511798000c0178009c
:1010300005042000020cb20032179800850f510001
:101040003400320003003c00e00f51000800320081
:101050004800370005082000be119000858f510020
:1010600014003200050c2000858f510041003a0029
:10107000c61c260015c0b3003600be003601be00f7
:101080007e1490008e1c90001e1d9000ae1d9000de
:101090000040e10001c8e10002d0e10003d8e10016
:1010a000330039008542e800f4cf5200f2ff3a00e5
:1010b0002f00370015c0b300000120000100200000
:1010c0006011b8007e1490008e1c90001e1d9000d0
:1010d000ae1d90000040e10001c8e10002d0e10037
:1010e00003d8e10022003900490020000000d000b0
:1010f0008180d2000281d2008381d2008904e9007c
:10110000faff3a008542e800f0cf5200edff3a00c6
:101110001700370015c0b300800020000100200038
:101120006011b8007e1490008e1c90001e1d90006f
:10113000ae1d90000040e10001c8e10002d0e100d6
:1011400003d8e1000a003900390020000000d00077
:101150008180d2000281d2008381d2008904e9001b
:10116000faff3a008542e800f5cf5200edff3a0061
:10117000054f78009e02fb005e1590008a8f52009a
:1011800002003d000a4f780004003700de15900091
:10119000858f550001003d0055179800e00f520063
:1011a00003003200e3026600010032000402e9009d
:1011b0000500240085026600060032005e109000e3
:1011c000800f52000200340000025200010037007c
:1011d0000002eb008000eb009e02fb00211798004c
:1011e000850f520002003400850252002517980036
:1011f0006402660045003200e20266006102660099
:10120000e08f520017003200bd0290000504b200ca
:10121000080032009d027800b6c2b300e00f520011
:101220000100320006c3e800864a7800850ee80017
:1012300008003700b0022000e00f52000100320029
:101240000080e8008d00780076fd0700e10f400087
:10125000160032006e1190000201e800621798003b
:1012600012003700e00f5200100032003d029000e3
:101270000404b200050032001d02780005c2b3006c
:10128000054a7800840ee800050037008d007800dc
:101290000002200063fd0700e10f40000300320060
:1012a000ee1190008301e800631798002e12900061
:1012b000e00f52005b00320008c3b30084047800e2
:1012c0003d0290000404b200040032001d027800c8
:1012d000084a7800840ee800050037008d00780089
:1012e000000320004ffd0700e10f40000300320023
:1012f000ee1290008502e800651798008904e90065
:10130000efff3a0029179800460037002e1390008f
:10131000e00f5300160032006802660014003a0025
:1013200008c2b300860478003d0290000404b200b5
:10133000040032001d027800084a7800840ee8009c
:10134000050037008d0078000002200035fd070001
:10135000e10f400003003200ee1390008703e80025
:10136000671798008904e900efff3a0029179800f1
:10137000e202660061026600e08f52001700320050
:10138000bd0290000504b200080032009d02780002
:10139000b6c2b300e00f52000100320006c3e800fd
:1013a000864a7800850ee80008003700b002200069
:1013b000e00f5200010032000080e8008d0078004c
:1013c00018fd0700e10f4000160032006e14900077
:1013d0000804e8006817980012003700e00f520078
:1013e000100032003d0290000404b20005003200fb
:1013f0001d02780005c2b300054a7800840ee8009b
:10140000050037008d0078000002200005fd070070
:10141000e10f400003003200ee1490008904e80060
:10142000691798005e159000441c26008a02e900a6
:10143000f0056600c32add000c007800048242003b
:101440000002b200141798003b079800200798008c
:101450009c003700de1090003e1190008100e900f2
:101460000304200051179800830f51006f003200d1
:1014700003003c00e00f5100080032007c00370000
:1014800004082000be129000848f520051003200e8
:10149000040c2000848f520075003a00e00f5600c3
:1014a0001b003d001e1390007e1090008e189000cf
:1014b0001e199000ae1990003604be002605be002d
:1014c0000802be000a03be008d0107000802be002c
:1014d0000a03be00004f78000000fb00cf80de0052
:1014e0000101780082017800f60107007e14900067
:1014f0008e1c90001e1d9000ae1d90000004540034
:1015000081845c0002055d0083855d00200037005a
:10151000be049000e08f5400220032001e109000a4
:101520007e1290008e1a90003004be002005be008e
:10153000441f98000400be000801be00351f98003b
:1015400085fc07000801be00004f78000000fb008a
:10155000cf80de00c50007004e1a9000be1a900032
:101560000001520081815a000002eb00020f980036
:10157000130f9800340f98008001eb00230f9800a0
:101580000e0c90009e0c90002e0d9000be0d900051
:1015900078179800091f98001a1f98002b1f9800b1
:1015a000090037009e1490007e1590001902780003
:1015b000110009000485d800a400200011000900d2
:1015c0000480d800014f78000bc3b3001ecf450044
:1015d00027003700542726002e009000e00f50000f
:1015e0000100320044262600de109000c20add0011
:1015f0007e1090008e1890001e199000ae19900079
:101600008502e900050033008301d1000281d30087
:101610008180d3000080d300f9ff3700ef02600023
:1016200005024200144f7800110037005e1190004f
:101630007e1490008e1c90001e1d9000ae1d900028
:10164000e312b90001c3b300040078000000e90010
:10165000050033008b05d1000a85d3008984d300af
:101660000884d300f9ff370067426400014f42004d
:101670003d0290000404b200070032009d02780091
:101680001e427800844a7800850ee800e04f520040
:1016900006003a00080037001e00fb008d007800ad
:1016a00060fc0700e10f4000030032006e11900063
:1016b0000201e800621798009e119000e881510035
:1016c000131798005e129000e00f520061ff3a007d
:1016d0006806660016003200ae129000e08f5200dd
:1016e000130034006e16900008c2b3008504780021
:1016f0003d0290000404b200040032001d02780094
:10170000084a7800840ee800050037008d00780054
:101710000002200043fc0700e10f400001003200fe
:101720000c06e8008904e900f1ff3a006c17980004
:101730000e13900016407800004f7800e04f5000e4
:1017400088fc3a004f06be006e1090004f05be00a8
:101750004f04be000080fa00000006000200fa00fc
:10176000889fbe0001047800004f78003802900086
:10177000840278000504b200020032000000fb0081
:1017800033003700e202620005003a000403b300b0
:1017900015049800340498000080eb002c003700fa
:1017a000d8049000e08f540006003a001200200098
:1017b0008e007800480090007cfb07001904980018
:1017c00022003700a8029000e08f520008003a0083
:1017d000852b26000430a00025049800050c780015
:1017e0003404980025002000550498001504980042
:1017f00018019000a8009000480090006bfb0700c3
:10180000280290008082eb00150498001e4a7800a0
:10181000040ce800a4c0b3009e4f12000b003a0075
:10182000380290000410b200080032001801900045
:10183000a8009000480090005cfb07000002eb004d
:101840001404980028029000040c78001e00fb008d
:101850004f04be000080fa00000006000000fa00fd
:1018600000c0da000080fa0000000600020ab90099
:10187000001bb9000200b800810042008100430053
:10188000000006000000fa00889fbe008a9fbe008c
:101890003004be002005be000404440085844c00d2
:1018a00006054d0087854d000898be000a90be00d1
:1018b0000440e10005c8e10006d0e10007d8e100de
:1018c00002003100680040001008e8004f05be002b
:1018d0004f04be000080fa00000006001000fa006d
:1018e000889fbe008a9fbe000605be000404be009d
:1018f0003002be002003be00049fbe000697be005b
:10190000110020000802520089825a000a035b007d
:101910008b835b0044079800550798006607980082
:10192000770798000498be000698be003e02be00ed
:101930002e03be000820e10009a8e1000ab0e10082
:101940000bb8e100010039008000eb004f05be003c
:10195000108810004f04be000080fa00000006004e
:101960001400fa00889fbe005b0007008a9fbe003b
:101970008c9fbe000006eb004c0798003c079800c7
:101980002c0798001c0798000c0f78000605be0075
:101990000404be000d0420004e039000be0290001f
:1019a000860343002e029000e00f530003003d0029
:1019b0002a000700b3ff07000200370027000700d6
:1019c000c6ff0700ce029000150f9800e08f52006e
:1019d0000900350045000700140020000500200024
:1019e0006033b80000007200818072000201730051
:1019f00083817300380007000c06e8008d0f560045
:101a0000e5ff3a001e0a9000e00f520004003d007e
:101a10000802be000a03be000e00780099ff07000e
:101a20004eba9700e00f520006003a003e04be0096
:101a30002e05be0058079800690798007a0798009d
:101a40000b0f98004f06be00280007004f05be0090
:101a50004f04be000080fa00000006004f2bde009d
:101a60002200070086837300858242004f23de0038
:101a700047079800868272000402420035079800ea
:101a80009e0290004f2bde0085824200060272000b
:101a9000240798001e0278004f23de000402420053
:101aa00086827200150798004f18de00000f720042
:101ab0000e0007000802be000a03be00000040003e
:101ac000818048000201490083814900020007002b
:101ad0000e0078000000060050079800610798008b
:101ae00072079800030f9800000006005e00900047
:101af000ee0090007e0190008e099000000006002c
:101b00000000fa00881f780018002000881f780065
:101b100093ff07008f87e9004f0478000080fa00e8
:101b2000000006000000fa00801feb008cff070099
:101b30008f87e9000080fa00000006000000fa002c
:101b4000889fbe008a9fbe00e00f5000e08f5800c3
:101b5000e00f5900e08f59000c003d006044b800d0
:101b60006055b8000000540081805c0002015d00f7
:101b700083815d00180020001600070008003d006a
:101b8000190007000004eb00050037000004eb001b
:101b90001000070002003d0013000700180020009d
:101ba000d7ff0700e00f5400060032006022b800a3
:101bb0006033b8000000520081805a0002015b00cf
:101bc00083815b004f05be004f04be000080fa0019
:101bd00000000600e00f5200e08f5a00e00f5b00ab
:101be000e08f5b00000006006044b8006055b8005c
:101bf0000402540085825c0006035d0087835d005b
:101c0000000006000000fa00889fbe008a9fbe0008
:101c10008c1f7800e00f5000e08f5800e00f590053
:101c2000e08f59000d003d006044b8006055b800d9
:101c30001c0020000000540081805c0002015d0057
:101c400083815d000820e10009a8e1000ab0e100fd
:101c50000bb8e1000d003d00080037000006eb0066
:101c6000e00f5200e08f5a00e00f5b00e08f5b0056
:101c700006003d006044b8006055b80004025400fe
:101c800085825c0006035d0087835d00a5ff070079
:101c9000e00f5600060032006022b8006033b80042
:101ca0000000520081805a0002015b0083815b00ca
:101cb0004f0678004f05be004f04be000080fa00ba
:101cc000000006000000fa00889fbe008a9fbe0048
:101cd0008c1f78000006eb00e00f5000e08f5800ea
:101ce000e00f5900e08f590007003d006044b80044
:101cf0006055b8001c0020000000540081805c008a
:101d000002015d0083815d00e00f5200e08f5a0008
:101d1000e00f5b00e08f5b0007003d006044b8000f
:101d20006055b8000c00a2000402540085825c00db
:101d300006035d0087835d000d000700e00f56007d
:101d4000060032006022b8006033b8000000520084
:101d500081805a0002015b0083815b004f0678009e
:101d60004f05be004f04be000080fa0000000600d0
:101d7000889fbe008a9fbe008c9fbe000404b800ee
:101d80000506b8008904460060854e000606b800c6
:101d90000a054600e0854e000706b8008b054600a0
:101da000040eb800890446000a854e00e0854d0007
:101db000050eb8000a0546008b854e00060eb800d9
:101dc0008b0546000416b8000a0546008b854e00b8
:101dd0000516b8008b054600041eb8008b054600aa
:101de0000800be000a01be004f06be004f05be003f
:081df0004f04be0000000600d4
:020000040000fa
:101df8000200fa0040a7a90010010700a901070086
:101e080061010700d80107008f0307009a02070045
:101e1800c3000700b4828000e00f520002003200c5
:101e2800c01026006afa0700142ea800154ea90053
:101e380010c627007107200094030700a5708000d2
:101e4800044020000482620004f0a7000402ea00b3
:101e58000402e9004f22de00044278000482fb00fd
:101e6800610262004a22dd00a6708000f5bf2f00e3
:101e78008502630005027200a4708800a4708000c7
:101e88006202620004f0a7000402ea000402e9000a
:101e98004f22de00044278000482fb0061026200e7
:101ea80004024200a6708000d5ff2f00850263005f
:101eb80005027200a4708800a4828000841f780044
:101ec80044132600841f78004dfa0700e487570062
:101ed8000042eb00044f7800000000001e4278002a
:101ee8000404a200e04f5200fcff3a00d0ff370084
:101ef8000000fa000000eb00d6010700000278009d
:101f0800a4828800a5828000f47c2000848f52007f
:101f18000a003400a5828000c4912000848f5200fa
:101f280006003c00150ea800156ea900144ea90065
:101f3800140ea900140020002f003700a58280008d
:101f4800c4912000848f52000a003400a5828000ca
:101f5800349c2000848f520006003c00150ea80017
:101f6800156ea800144ea900140ea9002400200024
:101f780021003700a5828000349c2000848f520005
:101f88000a003400a582800074bb2000848f5200b0
:101f980006003c00150ea800156ea800144ea800f7
:101fa800140ea9003400200013003700a582800019
:101fb80074bb2000848f520006003400150ea80060
:101fc800156ea800144ea800140ea80044002000a6
:101fd80009003700a5828000f47c2000848f52001d
:101fe80004003c00150ea900156ea900144ea900a6
:101ff800140ea90084322200040078000080fa0040
:10200800000006000000fa00b4828000e00f5200d1
:102018000200320090142600edf90700253a8000ee
:1020280004fe2f0004826200243a8800243a8000cb
:102038000460a1000470a100243a8800353a8000a9
:1020480004e02f0084826200f4032000050272007d
:10205800343a8800143a80000480a0000490a1005b
:1020680004a0a100143a88004207a800000000005c
:10207800143a800061026200e00f5200fcff3a004f
:1020880024722b00153920001483880025838800ca
:1020980024722b001539200034838800458388007a
:1020a800168380002783800054838000cfa2de003f
:1020b8000401be000600be0096f907000002be003b
:1020c800e00f5200e08f5a0002003d006f0242000c
:1020d800e0824a004c2bdd004422de00040273003b
:1020e800c4aade0061025200e0825a00c48288005d
:1020f800d5828800c4828000d582800004027800de
:1021080044118800b4828000e00f520002003200bf
:10211800c0162600aef907000080fa00000006008d
:102128000000fa00b4828000e00f52000200320082
:10213800101a2600a6f90700253a800004fe2f0091
:1021480004826200243a8800243a80000460a000d7
:102158000470a000243a8800353a800004e02f007b
:10216800848262000402200005027200343a88006a
:10217800143a80000480a0000490a10004a0a100eb
:10218800143a88004207a80000000000143a8000b2
:1021980061026200e00f5200fcff3a0014c62700fb
:1021a80075072000148388002583880014c627003b
:1021b80075072000348388004583880016838000d3
:1021c8002783800054838000cfa2de000401be0074
:1021d8000600be004ff907000002be00e00f5200e3
:1021e800e08f5a0002003d006f024200e0824a0080
:1021f8004c2bdd004422de0004027300c4aade007a
:1022080061025200e0825a00c4828800d5828800a8
:10221800c4828000d58280000402780044118800be
:10222800b4828000e00f520002003200c01626007f
:1022380067f907000080fa00000006000000fa00b5
:10224800112ea8001f2ea900110ea9001f0ea9000b
:10225800116ea9001f6ea900104ea9001e4ea900fc
:10226800100ea9001e0ea900114ea9001f4ea900ac
:10227800102ea9001e2ea90050cea900504ea8006d
:10228800604ea90011aea900612ea900106ea90028
:10229800302ea900408ea90011cea800118ea800ea
:1022a800108ea80010aea80011eea800406ea8007d
:1022b8001faea9006f2ea9001e6ea9004e8ea900a0
:1022c8001fcea8001f8ea8001e8ea8001eaea80054
:1022d8001feea8004e6ea80040eea90060cea9002f
:1022e80040aea90040cea900404ea800402ea8004c
:1022f800502ea800500ea8004eeea9006ecea900e0
:102308004eaea9004ecea9004e4ea9004e2ea900f1
:10231800400ea8004e0ea800e535800004f82f00f6
:10232800848262001406200005027200e4358800e9
:10233800e5358000f40f280084826200040026003e
:1023480005027200e43588000536800004f82f0085
:102358008482620024052000050272000436880089
:1023680005368000f40f28008482620004102500de
:1023780005027200043688000002eb0004007800b1
:102388000080fa00000006000000fa00c1e1a80081
:10239800c1a1a900040e800004a0a10004b0a100fe
:1023a80004c0a100040e8800040e80000480a1006f
:1023b8000490a100040e8800040e80000440a100cf
:1023c8000450a1000460a100040e8800c041a900c7
:1023d800040e80000400a1000410a100040e88006f
:1023e800c3e1a900c3c1a800140e800004b0a10075
:1023f80004c0a10004d0a100140e8800140e8000af
:102408000490a10004a0a100140e8800c301a90033
:10241800c281a900c1e5a800c1a5a900042e8000b9
:1024280004a0a10004b0a10004c0a100042e8800eb
:10243800042e80000480a1000490a100042e8800ce
:10244800042e80000440a1000450a1000460a100f3
:10245800042e8800c045a900042e80000400a100b5
:102468000410a100042e8800c3e5a900c3c5a80074
:10247800142e800004b0a10004c0a10004d0a10063
:10248800142e8800142e80000490a10004a0a1003e
:10249800142e8800c305a900c285a9000080fa008f
:1024a800000006000000fa0001eca90001aca90038
:1024b800016ca900014ca800146080000400a10070
:1024c8000410a1000420a100146088002461800089
:1024d8000400a0000410a00024618800c457210053
:1024e80024608800c457210044638800c457210031
:1024f80044648800618ca900616ca900614ca90042
:10250800612ca900610ca900600ca80063eca8006c
:1025180063cca9001463800004a0a00004b0a0004c
:102528001463880063aca800818ca900816ca900a1
:10253800814ca900812ca900810ca900800ca8005d
:1025480083eca80083cca9001464800004a0a00038
:1025580004b0a0001464880083aca80001eca800b3
:102568000080fa00000006000000fa0021e3a9003c
:1025780021a3a8002183a9002143a80004198000f1
:102588000480a1000490a1000419880004198000a7
:102598000450a0000460a0000470a0000419880082
:1025a8002083a9002063a8002043a90014198000f3
:1025b80004d0a10004e0a10004f0a10014198800cf
:1025c8002343a900141980000480a0000490a100ee
:1025d800141988001519800034f82f00048262004d
:1025e800141988002223a9002203a90025e3a900c1
:1025f8002519800004f021000502720024198800c2
:10260800a4c0b3000443780045322000864a78000d
:102618003303a800941980000400a1000410a1004d
:102628000420a10094198800c1e8a8003442800061
:102638000440a0000450a0000460a00034428800b8
:1026480001a8a90021a8a90021e3a8000080fa0098
:10265800000006000200fa00000f78001e02780051
:10266800e00f52000e003a004519800004fe2f00ca
:10267800048262008401b3004419880028e3a90099
:102688002023a800000000000419800061026200f5
:10269800e00f5200fcff320004188000730037007e
:1026a8001e027800e10f520010003a00644ea800a4
:1026b8004519800004fe2f0004826200e400b30084
:1026c8004419880028e3a9002023a800000000007e
:1026d8000419800061026200e00f5200fcff320022
:1026e800644ea90004188000600037001e027800bc
:1026f800e20f520010003a0015aea80045198000fc
:1027080004fe2f0004826200c400b300441988004c
:1027180028e3a9002023a800000000000419800075
:1027280061026200e00f5200fcff320015aea90002
:10273800041880004d0037001e027800e30f520095
:1027480010003a00652ea8004519800004fe2f00ed
:10275800048262000420a0004419880028e3a9002c
:102768002023a80000000000041980006102620014
:10277800e00f5200fcff3200652ea900041880000b
:102788003a0037001e027800e40f520010003a00a9
:10279800146ea8004519800004fe2f000482620010
:1027a8005400b3004419880028e3a9002023a80096
:1027b800000000000419800061026200e00f52006e
:1027c800fcff3200146ea9000418800027003700af
:1027d8001e027800e50f520010003a00342ea800bf
:1027e8004519800004fe2f0004826200f400b30043
:1027f8004419880028e3a9002023a800000000004d
:102808000419800061026200e00f5200fcff3200f0
:10281800342ea90004188000140037001e02780026
:10282800e60f520010003a00448ea80045198000b7
:1028380004fe2f0004826200b401b300441988002a
:1028480028e3a9002023a800000000000419800044
:1028580061026200e00f5200fcff3200448ea900c2
:102868000418800001003700843222000400780038
:102878000080fa00000006000000fa0021e2a9002a
:1028880021a2a9002182a9002162a80004118000c8
:102898000480a1000490a1000411880020e2a9008e
:1028a80020c2a90020a2a9002082a9002062a900b4
:1028b800041180000410a1000420a1000411880064
:1028c8002002a90023e2a90023a2a90023c2a9008b
:1028d8002362a9002342a800141180000460a1000b
:1028e8000470a1001411880022a2a9002222a900c4
:1028f800c4828000d58280000402780044118800d8
:102908002536800004f82f00848262002406200007
:102918000502720024368800a534800004fc2f00cc
:10292800048262000400a000a43488000188a90081
:102938002188a900344280000400a0000410a100ee
:102948000420a0003442880021e2a8000002eb0025
:0c295800040078000080fa000000060077
:020000040000fa
:102964000c610000b8000000820000005365740090
:1029740075702000436f6d00706c650074652000f5
:102984002d204200656769006e6e69006e67200045
:102994004d6169006e205000726f670072616d00b6
:1029a4000042610074746500727920004c65760001
:1029b400656c20003d203a0025640a000053650040
:1029c400747469006e672000436c6f00636b2000b1
:1029d400746f2000486967006820530070656500c3
:1029e40064203600304d490050530000436c6f00a2
:1029f400636b2000436861006e67650020436f00cd
:102a04006d706c0065746500202d200046435900ec
:102a140020616e0064205500415254002053700020
:102a2400656564002052650064656600696e650032
:102a34006400530065747400696e670020436c0081
:102a44006f636b0020746f00204c6f00772053007d
:102a540070656500642037002e384d0049505300de
:102a6400000000006c100000a05000008000000076
:102a7400001000005c000000800000005c100000fa
:102a8400100000008200000000004800426e0000b8
:102a9400005a620002005a00620280002500000011
:102aa4008e6200002400000082000000b662000074
:102ab40000b662000900000000020000b8620000d5
:102ac40000b862000e0201000000000000000000d7
:102ad400000000000602020000000000b2620000d4
:102ae40002000000820000008e620000b462000058
:102af4000200000080000000b66200000200000036
:102b040080000000b86200000200000080000000a5
:102b1400646200002a0000008200000030313200ac
:102b240033343500363738003941420043444500d8
:102b3400460030003132330034353600373839003e
:102b4400616263006465660000286e00756c6c0049
:102b540029000000c4610000a00000008200000001
:102b6400010000000000000000000a000000000056
:102b740000000000006400000000000000000000ed
:102b8400e80300000000000000001000270000001f
:102b94000000000000a0860001000000000000000a
:102ba40040420f00000000000000800096980000e2
:102bb400000000000000e100f50500000000000036
:102bc40000ca9a003b00000000000000e40b54001f
:102bd400020000000000e800764817000000000032
:102be4000010a500d4e8000000000000a0724e0010
:102bf40018090000000040007a10f3005a00000099
:102c04000080c600a47e8d000300000000c16f0098
:102c1400f2862300000000008a5d7800456301000d
:102c240000006400a7b3b600e00d000000e88900ce
:102c34000423c7008a000000ba62000002000000fa
:0c2c440082000000010000000000000001
:020000040000fa
:102c50000000fa00a534800004fc2f00048262000a
:102c60000400a000a434880082202000f1f52f0089
:102c700000c82c00a3f6070023c2a90050f42f00bf
:102c80007af607000002eb00040078000080fa00ea
:042c9000000006003a
:020000040000fa
:102c9400f03fb1000180b10006003500ee030900e9
:102ca40000000000403fb1000180b100fbff3d0087
:102cb4001000b000203fb000020035000080090081
:082cc400000000000000060002
:020000040000fa
:0200000401f009
:04000800cfffff0027
:020000040000fa
:0200000401f009
:04000c00f9ffff00f9
:020000040000fa
:0200000401f009
:040010007fffff006f
:020000040000fa
:0200000401f009
:040014007fffff006b
:020000040000fa
:0200000401f009
:04001c00dfffff0003
:00000001FF
