:020000040000fa
:080000000002040000000000f2
:020000040000fa
:10000800de020000de020000de020000de02000068
:10001800de020000de020000de020000de02000058
:10002800de020000de020000de020000de02000048
:10003800de020000de020000de020000de02000038
:020000040000fa
:100400006f4c21000eff2d000e018800000000003f
:10041000000020000000e000020032000001200087
:10042000200288000c000700a07f210001002000ae
:100430000f000700000020000000e0000200320072
:100440000000020000000000b613020000000000df
:100450000040da000000fe00200020000000e00064
:100460000200320010002000900188000000060009
:10047000a1028800800078000000eb001a0037001d
:10048000e280400054a0b4009101ba00e280400034
:1004900054a0b4009102ba00e280400054a0b4001d
:1004a0000002eb00472bde00f507b200a601880032
:1004b000602ce10008003a000049eb000201e8006e
:1004c000020039003420ec0002f0a0008301e900b2
:1004d000f9ff3e00040037006128e100010032000e
:1004e0000082eb00040007001101ba000200e000e6
:1004f000e3ff3a000000060004d0a300e20f490029
:100500001c003900810278003549ba000201e80078
:10051000020039003420ec0002f0a0008301e90061
:100520000f0032002549ba000201e800020039003c
:100530003420ec0002f0a0008301e9000800320042
:100540000400e0000600320015c9ba000201e8000c
:10055000020039003420ec0002f0a0008301e90021
:100560008180e80054a0b4000300e000e2ff3a00fc
:10057000000006009102ba00055978008301e900e5
:10058000f7ff3200c82ade00055978008301e90030
:10059000f3ff32000400e000f1ff320011d9ba008d
:1005a000eeff370006060400000000006c0a04009d
:1005b0000000000000000400000000000040da001d
:1005c0000000fe000a00fa0011002000b1bf9f00e9
:1005d000c0bf9f006a805700530707004fb89700bd
:1005e0000080fa00000006000a00fa00e20f500046
:1005f00020003e0010a68000e10f500006003200ef
:1006000080232000452320002323200004232000f2
:100610000000e00004003a00802220004522200073
:100620002322200004222000060028001403630077
:1006300003003a000608780000002800140a700041
:1006400013a8a30001003a0013a0a0000200780044
:10065000050037001388a300feff32003102fb00c3
:10066000840a78000000e9000000e000f9ff3a0089
:100670000800370033002000b3bf9f00c0bf9f00b9
:10068000d1bf9f00e2bf9f006a8057002807070084
:100690006fb99700020078000080fa0000000600a1
:1006a0000a00fa0051002000b1bf9f00c0bf9f00a8
:1006b0006a805700200707005fb897000080fa00a3
:1006c00000000600889fbe008004780020a68000fd
:1006d0000000e00004003a000e0007000084eb0078
:1006e0000000e0000800350028a680000900e000b6
:1006f0000500320009004400060007000000e00089
:1007000001003d000084eb00080078004f04be00ab
:1007100000000600800078000100e00003003a00bd
:100720000000200020a68800000005000080eb00eb
:1007300002002000828f500002003e0021a68800a7
:100740000000eb00000006000168a900e70060005f
:100750000188a900cc08dd0000017800f3ff280023
:100760000207b20024428000848161004411de004f
:1007700083817000e800600023428800c308de0027
:1007800083ff2f00e180600034428000848161009b
:10079000cb08dd00830171000008b20033428800fd
:1007a000f27f2f004700de0003418000030161005b
:1007b00061006000028170004c00dd000241880091
:1007c000f1ff2e00044180008480600081007000f1
:1007d00001418800000006004211880000118800d5
:1007e0001111880000000600839f68000100e000ee
:1007f00002003d0060001000e08018000300e000ef
:1008000002003d0060011100e081190005000700b1
:100810004f00e00002003b0060001000e080180084
:10082000000006006022b800060220000000d00090
:100830008180d2000482d2008582d2000000a00014
:100840000202520083825a00030031000202420079
:1008500083824a000000a1000603e900f3ff3a008a
:1008600000000600c14121002f0007008000780031
:100870000080eb000100e00004003500c1412100d0
:10088000a0002000020007004f80de0000000600ec
:10089000889fbe008a1f78000004be00c900900037
:1008a00069009000808f5000050039000900780031
:1008b0008e0007008080eb000000e000160035008d
:1008c000084578004900900008587800c004980056
:1008d0001900780000b8a30004003a0000a8a300a3
:1008e00007003200ea4f540005003a000900780082
:1008f000040307008080eb000000e00006003a00df
:1009000000c0200019006000020032004900900081
:10091000e00498008a80fb00010078004f05780011
:100920004f04be0000000600889fbe008a9fbe00e4
:100930008c1f780080047800010478002f003700b5
:10094000c800900068009000808f500004003900bb
:1009500008007800650007000000e0003a0035005c
:1009600000402000180060000a003200a1002000b2
:100970000900780050000700000678000c00e00035
:1009800004003200618514000a054600cfd5de0060
:1009900004003700090078003e0007000005be0093
:1009a0000006eb0048009000680190000001510033
:1009b000cf91de008a0f51008b8f59000200310069
:1009c0000205be000006eb000a01be0089007800a7
:1009d00022000700480090000a00400040049800f0
:1009e0000c00e0000400320008007800c502070097
:1009f0000000e00014003a008a8444001904e0007a
:100a0000cfff3a000080200018006000060032008e
:100a100008007800bb020700800078000080eb002f
:100a20000100e00009003a0001c020009880600049
:100a30000000eb00050032004800900060049800c0
:100a40000000eb00010037000080eb004f0678004b
:100a50004f05be004f04be00000006000202be00ab
:100a60008001eb0007003700611bb8000601400061
:100a7000068340001649780061025200e0825a0065
:100a80008301e800e00f5200e08f5a00f6ff3a00c1
:100a900000000600800078000000eb0000814000ac
:100aa0000000e8001204e000fcff3a0001005100e1
:100ab000cf80de00000006006011b8006103b800be
:100ac00006034100e0834b0016427800814f52003c
:100ad00001003a00860178000201e8000404e00009
:100ae000f6ff3a000300780000000600889fbe0071
:100af0008a1f780000047800c80090006801900008
:100b00000000eb00828f50003d0039001800780093
:100b10002200290002016000e20f510007003200ac
:100b2000012024000000e00001003d000120200021
:100b3000008c70000080eb003100370002002600be
:100b400002006000820f500009003a003800900057
:100b5000808f500006003900080078006902070005
:100b6000800078000080eb000100e00024003a00e3
:100b70001805780000c020000000650019003a0048
:100b8000a80490006002200008004000808f5400fc
:100b900014003a0000202000010020008a03070012
:100ba000200498000000e00005003a0029049800a5
:100bb000490498008904e8003904980008003700c7
:100bc0000a60a0000a0c7800400498000120200070
:100bd0008080400031049800400c9800500c980030
:100be000f20107002800900050049800380090009f
:100bf0006004980000002600180c70000000eb0054
:100c00004f0578004f04be0000000600881f7800e2
:100c10008a9fbe0000047800010078000205be0033
:100c2000880078000202be001200200003002000ad
:100c3000bf0207008a0f50008b8f5800010032005e
:100c40000004eb00080078004f05be004f04780058
:100c5000000006000000fa00e88157004fb9970035
:100c6000c141210060602000020007000080fa00fe
:100c7000000006006200fa00889fbe008a9fbe0046
:100c80000005780081047800020478008300780071
:100c900060f92f000f0040006e0207008a979f0046
:100ca00099979f000000eb00a09f9f001885fb0014
:100cb0008a04fb000a05ea004f55de0050022000be
:100cc000808f54000e003200e10f55000c003a00f6
:100cd0001200200003002000880078001f90970079
:100ce0000f9297000400010090979f000000e00021
:100cf000970032002f9897000000e800a09f9f0007
:100d00000a04440050022000808f54000400320086
:100d10000900e000e5ff3a002f9897008d003700aa
:100d20000000eb00809f9f00f0979f00e0979f00de
:100d3000d0979f00c0979f00b0979f00c09f9f00d3
:100d40000005eb0008003700214b21008100500016
:100d50008100d000624a2100828040004f989700b5
:100d600011007000c09f9f008a04440099457800dc
:100d70008b00fb00204b21001d0207000a05e80044
:100d80000000e000f0ff3a00a1c2b30081cf55009f
:100d90000e003a00bf8897000180e900b08f9f00e5
:100da00010007800b09f9f000000e00005003d00ab
:100db0000000ea00b09f9f004f9897000020a0001d
:100dc000c09f9f000904e8000f003700b09f9f00fc
:100dd0006000b80006003700f3ff2700830f5000c3
:100de00002003200ea00b900000041008100e80082
:100df000018444001801fb000203b100e90f510017
:100e0000f5ff3600b09f9f00e0c2b300984f10007e
:100e1000030032000080eb00909f9f00200037000d
:100e200008007800a1c2b300d0cf100007003a003c
:100e30003f8997008280e900b18f9f009100780080
:100e4000919f9f000004e800150037000000eb00b0
:100e5000909f9f008000eb0006003700f2ff270004
:100e6000820f500002003200ea00b9000000420088
:100e70008100e8000801e8008001eb0002814000e9
:100e8000e0814900124278000402fb000403b10033
:100e9000e90f5200f1ff3600909f9f000204780096
:100ea000984478008900fb00e0492100d001070048
:100eb0000000e000020032000804e80001003700f2
:100ec0008044eb00a97f9f0080c6b30080cf540010
:100ed00004003a0098cf14000a003a00664050001f
:100ee00006003700c0c6b30080cf540005003a00aa
:100ef00098cf140003003a0065404000a07f9f0097
:100f00000804e8001801fb00c3fb2f008f8141009b
:100f100061f92f008f80400080f92f000f00400002
:100f2000100007000000e00009003a00c1fb2f009c
:100f30008f80400080f92f000f0040003b04070025
:100f40000000e000020035000804e80057ff370009
:100f50000080eb004f05be004f04be000080fa0089
:100f600000000600881f7800e4c6b300844f5100db
:100f7000be00320010003c006b425200844f510012
:100f80001800320005003c0054c2b300844f5100e9
:100f9000f600320084c5b3000f00370044c6b3002a
:100fa000844f51001500320065424200844f5100c9
:100fb000f1003a001100370004c7b300844f51001c
:100fc000dd0032005700350065424200844f510079
:100fd0005400320063424200844f5100e6003a0060
:100fe000500037001181e90082087800f00090007d
:100ff0008181410092497800e5003700206290002d
:10100000c5c6b300854f520007003a009102780030
:1010100064825200840878001402be004fabde00e8
:10102000860378001100370015c7b300854f5200c2
:1010300003003200a5c6b300854f520006003a00f7
:101040009102780068825200840878005403be0040
:101050004402be00050037001182e90084087800d0
:1010600014027800cfa2de00612bb9000498be0004
:101070000690be00a060900088c6b30088cf5000e4
:101080000d00320028c6b30088cf500004003a009b
:101090000402fb00cfa2de00612bb900080037007c
:1010a00048c7b30088cf50000300320066444400b4
:1010b00088cf500004003a00cfa2de00612bb900b7
:1010c0000498be000690be003002be002003be00a1
:1010d000f0009000e00f5200e08f5a00e00f5b003c
:1010e000e08f5b0003003d0001824100d5c2b300e8
:1010f0000a003700001290000418a3000300320019
:1011000001824100b5c2b300040037000408a30007
:10111000510032000182410005c2b300054a780047
:101120004b00370020629000c5c6b300854f5200c7
:1011300006003a0091027800648252008408780028
:101140001402be006033b8001100370015c7b300a9
:10115000854f520003003200a5c6b300854f5200f0
:1011600006003a00910278006882520084087800f4
:101170005403be004402be00050037001182e9009e
:1011800084087800140278008002eb006033b80015
:101190000498be000690be00a060900088c6b30010
:1011a00088cf500003003a008002eb006033b800a3
:1011b0000e00370028c6b30088cf500004003a0064
:1011c0000482fb008002eb006033b80007003700a8
:1011d00048c7b30088cf5000030032006644440083
:1011e00088cf500003003a006033b8000498be0076
:1011f0000690be00801090000138a3001600320057
:101200003002be002003be00e00f5200e08f5a0003
:10121000e00f5b00e08f5b000f00320081c7b3007e
:10122000814f51000300320081c5b300814f51004e
:1012300009003a00f00090000182410005c3b300ac
:10124000054a78008100e80001824100024a7800e6
:101250008100e80071009800f00090008181410059
:1012600063009800824078003e003700a061900043
:10127000c4c6b3001181e90084cf510022003200be
:101280000a003c006442520084cf51002500320025
:1012900004c2e80084cf51001300320068425200bb
:1012a00084cf51001e003a000a00370044c7b30043
:1012b00084cf51001b0032006642420084cf5100af
:1012c000110032006942520084cf510014003a00ec
:1012d000050037008208780092007800405890009e
:1012e000804878002c00370082087800920078004f
:1012f000600a9000cfa2de00612bb9008498be0086
:101300008690be00240037008208780092007800a2
:1013100060099000cf91de008288be001e00370079
:101320001181e9008208780092007800600890003e
:1013300080087800180037001181e90082087800e1
:1013400012027800cfa2de00612bb9000498be0023
:101350000690be00f000900081814100630098007b
:1013600081c7b300ed0107000b003700f0009000cb
:101370008181410005003700f0009000818141002b
:101380000204e00001003a0052c2b3008249780032
:101390008100e800710098000000eb004f04780025
:1013a00000000600c0a620009d003700881f7800be
:1013b000084c21001804e00003003a00f9ff070080
:1013c00020c0b300004c78004f04780000000600f5
:1013d000889fbe00000478000800780049000700dc
:1013e0008004780000042000180060000200320031
:1013f00028009000990007000000eb0020049800ee
:10140000384090000004e000050035000000fb00bb
:101410006cfc07000000e000010032008084eb005b
:10142000181090000000e000080032009cfc07004b
:101430000000e000010032008084eb0018109000f2
:10144000860007000000eb00101498000008200040
:10145000180060000f003200a14621000000eb00e0
:10146000d10f140005003a0000004000c1462100e1
:10147000008040000008eb00030037000000e80097
:10148000e80f5000f6ff3a000800780073000700ec
:101490000e003700000c780000c0eb0030449800cc
:1014a00060022000080040002004980040049800da
:1014b00050049800400c980060049800500c98006c
:1014c0007004980076004400000c98000900780031
:1014d0004f04be0000000600889fbe00c8472100e0
:1014e000f0045400480078000000e00001003200e1
:1014f000b7ff0700890f5400faff3a004f04be00ff
:1015000000000600889fbe008a1f78000004780053
:101510000800e0000d003a00a846210070054400d4
:101520008004eb00580078000000e0000400320066
:10153000f4ff07000000e00001003d008084eb00a4
:101540008a0f5400f7ff3a00250037000000220000
:10155000180060008004eb0021003200a804900015
:101560000f00370009015100384090000000fb00d7
:10157000890078001cfc07000000e00007003c0028
:10158000280090004004980060049800500c9800d7
:101590001890a0008084eb00110037008084440084
:1015a00048019000828f5400eeff3900280090001f
:1015b000400498009800780002c02000028160007a
:1015c00001003a003800900001e8a3000200320058
:1015d0006004980001003700500c98008004eb0074
:1015e000090078004f0578004f04be000000060097
:1015f000020037000304e00006003200000178001a
:1016000002007800b041780081cf5100f9ff3a0024
:10161000010037000001eb00020078000000060026
:10162000010020000100e0000900320001008000fc
:101630000100e000060032008100e900010088009e
:101640008180400002008000810041008008780015
:101650000000060001087800000006000000e0001d
:10166000320032004002be00e50f5200e08f5a0007
:101670002e0036000408a3002c003a00f1a58000db
:101680000100e00002003200810f50000400310030
:1016900021009800f0a5880017003700820078002c
:1016a000210190000200e00002003200800f510092
:1016b000faff39001103be0086814000830f5000fd
:1016c0001a003900808f510004003a00841843004a
:1016d00085904b0001007800070037000200e00011
:1016e0000300320004024000840f51000f00390053
:1016f00022009800a0009800a00090000100e000e7
:101700000a00320010014000828f500007003a00aa
:10171000c24b21000009eb001001be00311841004e
:1017200021904900a10090002100980000000600cf
:10173000ea874700889fbe008a9fbe008c9fbe003c
:101740008e1f7800000678000204be000405be006b
:10175000010778000400be00fc020700d0b79f001c
:10176000e1b79f00e00f5000e08f580052003200b8
:10177000e00f5400e08f5c0050003200fcb79f0087
:101780000006be00ce0090006e009000808f5000da
:10179000040039000e007800d4fc07000000e000cf
:1017a00033003500004020001e0060000c003200b5
:1017b0000c01be00a10020007fb09700b900070017
:1017c000000278000400e00008003200ffb197003a
:1017d000618511000a054200cfd5de000400370004
:1017e0000c05be000002eb00010037000c05be0036
:1017f0004e0090006e01900000015100cf91de007c
:101800008a0f51008b8f5900020031000205be0083
:101810000002eb000a01be00ffb0970084bf9f00ea
:101820008efc07000a0656008b865e004e00900074
:101830000a004000400798000fba97000400e0003b
:10184000040032000e0078002eff07000000e000c8
:1018500007003a00e00f5600e08f5e0004003200ff
:101860007fb097000a004000f0b79f00c5ff370027
:10187000008020001e006000020032000e00780090
:1018800020ff070000c020001e00600002003200a0
:10189000ce009000610798005fb19700efb197000c
:1018a0000c0051008d8059000801be00ddfb0700cf
:1018b0000005be00010037006055b8000a00be00f8
:1018c0004f0778004f06be004f05be004f04be0014
:1018d000af00b10000000600889fbe008a9fbe00d6
:1018e0000004be00e1a580000100e000020032001b
:1018f000010078000f003700f1a58000e04b2100c7
:1019000005003700b10f5400a18f5c002b0036009a
:1019100064804000a10090000100e000f9ff3a005f
:1019200012003700b20f5400a28f5c002300360073
:1019300064004100100178000200e000f9ff3a0065
:1019400011017800f1a58000e04b2100050037006f
:10195000b10f5400a18f5c00180036006480400075
:10196000a1009000828f5000f9ff3a00caa58000c4
:10197000dba58000880f5500898f5d0001003100d4
:101980000805be000a00be00580007000000e00085
:1019900006003a00880f5500898f5d00060032006e
:1019a0008b05d1000a85d300f2ff37000a98be00ec
:1019b0002aff0700cbff37000000eb004f05be00f9
:1019c0004f04be0000000600889fbe000002be005b
:1019d00065004000e0804800000378000600a10098
:1019e00081017800060178000204be008000eb004f
:1019f000840f5400858f5c0027003600e50f5400eb
:101a0000e08f5c0002003e0068002000090020001a
:101a10000800be00b0ff07008000eb000000e000ff
:101a20001d00320090007800a4ff2f00f5ff2f006a
:101a300031014200a1814a00880f5100898f59006d
:101a400003003100a102900005087800080037006b
:101a50000881400002087800a1019000230198004d
:101a6000100178003119140021911c008888be00f3
:101a7000100178000000eb000200e00004003200da
:101a8000a20190000300e000010032006400410068
:101a9000e0a58800e4804000010078004f04be000b
:101aa000000006000202be008001eb0005003700c6
:101ab0008301e80092cf10000a0032006102520058
:101ac000e0825a006103b80006834100e0834b00c6
:101ad00006017800e00f5200e08f5a00f4ff3a0050
:101ae0000000050006007800000006000001be00ae
:101af0008000eb000200e0000600340002007800e5
:101b0000f0fa070080007800e18f400001003a0001
:101b10008000eb000100780000000600fc87470011
:101b2000889fbe008a9fbe008c9fbe008e1f7800db
:101b30000006780080c5b30080cf50000a00320054
:101b40007740400080cf50000a00320069404000da
:101b500080cf50000b003200d048210080bf9f0092
:101b6000ae0020000a003700c247210082bf9f005c
:101b700006003700d348210083bf9f008e0020005d
:101b800003003700d448210084bf9f000e012000cd
:101b90003c02be002c03be000605be000404be00cd
:101ba00040c6b30080cf50000300320065404000c3
:101bb00080cf50000b003a00e00f5200e08f5a0037
:101bc000e00f5b00e08f5b0006003d006000b800a6
:101bd0006011b800040450008584580006055900bf
:101be00087855900e80f57000400320040002000ac
:101bf000f00f570046003a00010037003000200087
:101c0000e00f5400e08f5c00e00f5d00e08f5d00ae
:101c100004003a00dc0890008d0120000100e00083
:101c20000d0032000e01e900cf91de000802be0077
:101c3000820064000382620084027800010278005e
:101c40000401be008fba9700028142001241780061
:101c5000f2ef9f007d012000800078008100e90004
:101c6000050033008b05d1000a85d3008984d30099
:101c70000884d300f9ff3700089ebe000a96be0014
:101c8000190037008d06e9000e01e900cf91de0052
:101c90000404be00820062000384640088047800ab
:101ca000010478000801be008fb89700028140004f
:101cb0009240780083fd2f008d81410081f77900eb
:101cc000000178000201e900050033008783d1009c
:101cd0000683d3008582d3000482d300f9ff370046
:101ce000049ebe000696be003c02be002c03be0051
:101cf000e00f5200e08f5a00e00f5b00e08f5b00c6
:101d0000910034000d00e000deff3c008e00370043
:101d10002c60900081c6b300814f50000b00320050
:101d200006003c000004e00008003200e6c050005d
:101d3000814f500052003a0004003700c1c6b30082
:101d4000814f50004e003a00230037000800e000a9
:101d500004003a005c0890008d0120000000e000c3
:101d600007003200110009000e84d8008fb99700d7
:101d70000180410010407800f0ef9f007d012000bd
:101d8000110009000e84d8000b0037001100090073
:101d90000e04d8008d06e9008e81b90002045400bb
:101da0008fb89700088440009841780082fd2f008a
:101db0000d01410083777900000478000800e000fd
:101dc000020032000d00e000f0ff3c00cfc4de0056
:101dd000614db90027003700e00f5400e08f5c0030
:101de00004003a005c0890008d0120000000e00033
:101df000080032006171b9000800be005001070000
:101e00000fba97008000420091407800f1ef9f00e8
:101e10007d0120006171b9000800be0081fa070051
:101e20000c0037006171b9000800be006efa0700af
:101e30008d06e90080f1b900020454008fba9700c2
:101e4000088442009841780082fd2f000d01410076
:101e5000837779000004be00e00f5000e08f580047
:101e6000020032000d00e000eeff3c004fcdde002e
:101e70008a057800089ebe000a96be003200370030
:101e8000e00f5400e08f5c00e00f5d00e08f5d002c
:101e900004003a005c0890008d0120000000e00082
:101ea0000a0032006172b900612bb9000800be005f
:101eb0000a01be00cb0107000fba97008000420064
:101ec00091407800f1ef9f007d0120006172b90020
:101ed000612bb9000800be000a01be00ba0107006c
:101ee0000e0037006172b900612bb9000800be0016
:101ef0000a01be00bf0107008d06e90080f2b900ab
:101f0000040454008fba9700088442009842780075
:101f100084fd2f000d02420085777a00009ebe00ee
:101f20000296be003c04be002c05be00e00f54002b
:101f3000e08f5c00e00f5d00e08f5d000200340088
:101f40000d00e000e7ff3c00e80f570010003a00ea
:101f50000c1090000038a3000d003200f78f5600df
:101f600006003e0080fd2f000d004000ef4078008d
:101f700000c3b30080cf50000500320002c3b3009d
:101f800071fd2f008d8040008d06e90082f77800fa
:101f9000f8801600110e98006c0090006109b900dd
:101fa00084fd2f000f0242008d004200abfa0700b3
:101fb0001c089000dc089000810f500006003d00d6
:101fc00000805000000e98000c1090000040a1000e
:101fd000001698000f0037000100e0000d003d00e2
:101fe0008c109000f4806000f08f500009003a00df
:101ff0007c099000fc009000810051000c099000c9
:1020000082805000008050004240a900010034004e
:10201000000e98004f0778004f06be004f05be0027
:102020004f04be00cf01b100000006000400fa001a
:10203000889fbe008a9fbe008c1f78000004780035
:1020400001067800f80d900078009000808555001a
:10205000080890008085550018089000808555007c
:10206000280890008085550038089000808555002c
:1020700048089000808555000002220090bf9f0014
:1020800000032300a0bf9f00081090000028a300b9
:1020900015003a000b00e000130034000b05780037
:1020a0008a047800e20f5500010036002900200064
:1020b0006149b90048029000ee8057005800900036
:1020c00004000100500498000000e0008f0032007e
:1020d0006808900009004000600c98000905550050
:1020e0004240a900eeff3c00780090000000e000b4
:1020f0000d0034006101b900480290008c007800a6
:102100005800900004000100500498008080eb000b
:102110000000e0007e003200e808900078009000a7
:1021200000804000600c9800880c90000900e000de
:102130001100340009057800e28f540001003600d8
:102140002a0020006151b90048029000ec8057003d
:102150005800900004000100500498000000e000c6
:102160006a003200680890000a004000600c980085
:102170008a845400edff3700180890000000e0004a
:102180000d0034006101b90048029000e8009000a1
:102190005800900004000100500498008080eb007b
:1021a0000000e0005a003200e80890001808900093
:1021b00000804000600c9800a80c90000900e0002e
:1021c0001100340009057800e28f54000100360048
:1021d0002a0020006151b90048029000ec805700ad
:1021e0005800900004000100500498000000e00036
:1021f00046003200680890000a004000600c980019
:102200008a845400edff3700380890000000e00099
:102210000f0034006101b90018089000e800900038
:1022200080804000480290005800900004000100a7
:10223000500498008080eb000000e0003400320081
:10224000e80890003808900000804000600c98007a
:10225000c80c90000900e000110034000905780066
:10226000e28f5400010036002a0020006151b900bd
:1022700048029000ec8057005800900004000100d4
:10228000500498000000e000200032006808900030
:102290000a004000600c98008a845400edff37006b
:1022a000081090008000eb000028a3001800320006
:1022b0000b00e000160034008b047800090578005c
:1022c000e28f5400010036002a0020006151b9005d
:1022d00048029000ee805700580090000400010072
:1022e000500498000000e0000800320068089000e8
:1022f0000a004000600c98008a8454004240a90003
:10230000eeff3c008000eb00010037008080eb0016
:10231000010078004f0678004f05be004f04be0054
:102320000080fa000000060000c0da00000006008d
:1023300000c0da000000060000c0da00000006005d
:1023400038f907000400be0000000600020ab900c8
:10235000001bb9000200b800810042008100430068
:1023600000000600889fbe008a9fbe003004420025
:10237000b0844a0030054b0090854b006000b100ee
:102380000898be000a90be000440e10005c8e100c4
:1023900006d0e10007d8e1000200310068004000eb
:1023a0001008e8004f05be004f04be000000060004
:1023b000889fbe008a9fbe003004be002005be007c
:1023c0000418540005985c0006185d0007985d002d
:1023d000110020000440e10005c8e10006d0e10042
:1023e00007d8e100010039008000eb0010881000e0
:1023f0004f05be004f04be00000006001200fa00a8
:10240000889fbe008a9fbe008c9fbe00e0b79f00e1
:10241000f1b79f0082bf9f0093bf9f000605be00db
:102420000404be000000eb00d0b79f00c0b79f00bf
:10243000b0b79f00a0b79f0090b79f000006eb00c9
:102440005fb19700cfb09700820141003fb0970085
:102450000200e00004003d00370007007e805700c6
:10246000c0ff070003003700330007007e805700dd
:10247000cfff0700dfb697000d00e0000c0035002d
:102480006fb29700ffb297000fbb97009fbb9700fa
:1024900010002000010020006011b800000272004e
:1024a0008182720002037300838373001b000700a4
:1024b0000c06e80001042000810f5600e0ff3a00fe
:1024c0000d00e00004003d000802be000a03be004b
:1024d0007e805700a3ff07005fa897000000e00080
:1024e00005003a001fb29700afb297003fb39700c4
:1024f000cfb39700090007006fb09700ffb09700b7
:102500000fb997009fb997004f06be004f05be0058
:102510004f04be000080fa00000006000100070022
:1025200000000600a4b79f00b5b79f00c6b79f0084
:10253000d7b79f00000006004f09de0082817100be
:10254000b3b79f004f01de008180400082807000a1
:10255000a1b79f008fb097004f09de000000400038
:102560000200700090b79f007fa897004f01de0027
:10257000818040008280700081b79f000d000700bd
:102580004f3ade000000400004007000f0af9f00f2
:10259000080007000402420085824a0006034b003f
:1025a00087834b00dfff07000802be000a03be005e
:1025b000000006002fb29700bfb297004fb39700fc
:1025c000dfb3970000000600881f78001800200085
:1025d000881f780089ff07008f87e9004f04780083
:1025e00000000600801feb0084ff07008f87e900d2
:1025f00000000600889fbe008a9fbe00e00f5000ca
:10260000e08f5800e00f5900e08f59000c003d00aa
:102610006044b8006055b8000000540081805c0040
:1026200002015d0083815d00180020001500070095
:1026300008003d00180007000004eb00050037000b
:102640000004eb000f00070002003d00120007002d
:1026500018002000dcff07000800e0000600320040
:102660006022b8006033b8000000520081805a0038
:1026700002015b0083815b004f05be004f04be007a
:1026800000000600e00f5200e08f5a00e00f5b00f0
:10269000e08f5b00000006006044b8006055b800a1
:1026a0000402540085825c0006035d0087835d00a0
:1026b00000000600889fbe008a9fbe008c1f780025
:1026c000e00f5000e08f5800e00f5900e08f5900f4
:1026d0000d003d006044b8006055b8000000540093
:1026e00081805c0002015d0083815d001c00200090
:1026f0000820e10009a8e1000ab0e1000bb8e10000
:102700000d003d00080037000006eb00e00f52000e
:10271000e08f5a00e00f5b00e08f5b0006003d0099
:102720006044b8006055b8000402540085825c0023
:1027300006035d0087835d00aaff07000c00e00030
:10274000060032006022b8006033b800000052007a
:1027500081805a0002015b0083815b004f06780094
:0c2760004f05be004f04be000000060044
:020000040000fa
:10276c000200fa0040a7a9000c0107001a03070099
:10277c00d20207005b01070048030700570307005c
:10278c00c0000700b08280000000e00002003200b0
:10279c00c033210030f80700142ea800154ea900f4
:1027ac0010c627007107200084030700a170800069
:1027bc00004020000080600000f0a7000000ea004c
:1027cc000000e9004f00de00004078000080fb00b4
:1027dc00610060004a00dd00a2708000f1bf2f0094
:1027ec008100610001007000a0708800a070800062
:1027fc006200600000f0a7000000ea000000e900a1
:10280c004f00de00004078000080fb00610060009b
:10281c0000004000a2708000d1ff2f0081006100f9
:10282c0001007000a0708800a0828000801f7800da
:10283c0040362100801f780003f90700e487570019
:10284c000040eb00004f7800000000001e407800b4
:10285c000004a2000004e000fcff3a00d0ff3700a7
:10286c000000fa000000eb0057010700a08288006e
:10287c00a1828000f07c2000808f50000a00340080
:10288c00a1828000c0912000808f500006003c0087
:10289c00150ea800156ea900144ea900140ea9005f
:1028ac00100020002f003700a1828000c091200072
:1028bc00808f50000a003400a1828000309c2000e0
:1028cc00808f500006003c00150ea800156ea80065
:1028dc00144ea900140ea90020002000210037007e
:1028ec00a1828000309c2000808f50000a003400b0
:1028fc00a182800070bb2000808f500006003c003d
:10290c00150ea800156ea800144ea800140ea900f0
:10291c003000200013003700a182800070bb200023
:10292c00808f500006003400150ea800156ea8000c
:10293c00144ea800140ea800400020000900370017
:10294c00a1828000f07c2000808f500004003c00ad
:10295c00150ea900156ea900144ea900140ea9009d
:10296c00903222000080fa00000006000000fa00fd
:10297c00b08280000000e00002003200903721009d
:10298c00b5f70700213a800000fe2f0000806000a0
:10299c00203a8800203a80000060a1000070a1005d
:1029ac00203a8800313a800000e02f0080806000df
:1029bc00f003200001007000303a8800103a8000cb
:1029cc000080a0000090a10000a0a100103a880097
:1029dc004207a80000000000103a8000610060006f
:1029ec000000e000fcff3a0020722b00113920009f
:1029fc00f08288000183880020722b00113920009e
:102a0c001083880021838800f48280000583800075
:102a1c0050838000cf80de000001be000400be00a9
:102a2c006ef70700e00f5000e08f580002003d00e9
:102a3c006f004000e08048004c09dd004400de00df
:102a4c0000007100c488de0061005000e080580076
:102a5c00308388004183880030838000418380006c
:102a6c000000780040118800b08280000000e00077
:102a7c0002003200c039210077f707000080fa000d
:102a8c00000006000000fa00b08280000000e000a8
:102a9c0002003200103d21006ff70700213a800040
:102aac0000fe2f0000806000203a8800203a800051
:102abc000060a0000070a000203a8800313a80002d
:102acc0000e02f00808060000002200001007000f8
:102adc00303a8800103a80000080a0000090a100dd
:102aec0000a0a100103a88004207a80000000000d6
:102afc00103a8000610060000000e000fcff3a002a
:102b0c0010c6270071072000f0828800018388001e
:102b1c0010c62700710720001083880021838800cd
:102b2c00f48280000583800050838000cf80de001b
:102b3c000001be000400be0028f70700e00f5000a3
:102b4c00e08f580002003d006f004000e08048001c
:102b5c004c09dd004400de0000007100c488de007a
:102b6c0061005000e0805800308388004183880069
:102b7c003083800041838000000078004011880081
:102b8c00b08280000000e00002003200c039210059
:102b9c0031f707000080fa00000006000000fa0080
:102bac00112ea8001f2ea900110ea9001f0ea9009e
:102bbc00116ea9001f6ea900104ea9001e4ea9008f
:102bcc00100ea9001e0ea900114ea9001f4ea9003f
:102bdc00102ea9001e2ea90050cea900504ea80000
:102bec00604ea90011aea900612ea900106ea900bb
:102bfc00302ea900408ea90011cea800118ea8007d
:102c0c00108ea80010aea80011eea800406ea8000f
:102c1c001faea9006f2ea9001e6ea9004e8ea90032
:102c2c001fcea8001f8ea8001e8ea8001eaea800e6
:102c3c001feea8004e6ea80040eea90060cea900c1
:102c4c0040aea90040cea900404ea800402ea800de
:102c5c00502ea800500ea8004eeea9006ecea90072
:102c6c004eaea9004ecea9004e4ea9004e2ea90084
:102c7c00400ea8004e0ea800e135800000f82f0091
:102c8c00808060001006200001007000e035880094
:102c9c00e1358000f00f28008080600000002600e5
:102cac0001007000e03588000136800000f82f002c
:102cbc008080600020052000010070000036880034
:102ccc0001368000f00f2800808060000010250085
:102cdc0001007000003688000000eb000080fa0054
:102cec00000006000000fa0021e3a90021a3a800bf
:102cfc002183a9002143a800001980000080a100b5
:102d0c000090a10000198800001980000050a0005c
:102d1c000060a0000070a000001988002083a900aa
:102d2c002063a8002043a9001019800000d0a10046
:102d3c0000e0a10000f0a100101988002343a900b5
:102d4c00101980000080a0000090a10010198800cc
:102d5c001119800030f82f000080600010198800d5
:102d6c002223a9002203a90025e3a9002119800030
:102d7c0000f021000100700020198800a0c0b300f1
:102d8c0024e3b7003303a800901980000000a100d1
:102d9c000010a1000020a10090198800c1e8a80033
:102dac00304280000040a0000050a0000060a00055
:102dbc003042880001a8a90021a8a90021e3a8009d
:102dcc000080fa00000006000200fa00000f7800f4
:102ddc001e0078000000e0000e003a00411980004f
:102dec0000fe2f00008060008001b30040198800b5
:102dfc0028e3a9002023a80000000000001980008f
:102e0c00610060000000e000fcff32000018800050
:102e1c00730037001e007800e10f500010003a00dc
:102e2c00644ea8004119800000fe2f000080600055
:102e3c00e000b3004019880028e3a9002023a80073
:102e4c000000000000198000610060000000e0003c
:102e5c00fcff3200644ea9000018800060003700af
:102e6c001e007800e20f500010003a0015aea800ca
:102e7c004119800000fe2f0000806000c000b300ec
:102e8c004019880028e3a9002023a80000000000b6
:102e9c0000198000610060000000e000fcff3200bf
:102eac0015aea900001880004d0037001e007800f8
:102ebc00e30f500010003a00652ea8004119800065
:102ecc0000fe2f00008060000020a0004019880048
:102edc0028e3a9002023a8000000000000198000ae
:102eec00610060000000e000fcff3200652ea900cc
:102efc00001880003a0037001e007800e40f5000e4
:102f0c0010003a00146ea8004119800000fe2f003a
:102f1c00008060005000b3004019880028e3a9002d
:102f2c002023a80000000000001980006100600050
:102f3c000000e000fcff3200146ea90000188000b5
:102f4c00270037001e007800e50f500010003a00f3
:102f5c00342ea8004119800000fe2f000080600074
:102f6c00f000b3004019880028e3a9002023a80032
:102f7c000000000000198000610060000000e0000b
:102f8c00fcff3200342ea90000188000140037001a
:102f9c001e007800e60f500010003a00448ea80086
:102fac004119800000fe2f0000806000b001b300ca
:102fbc004019880028e3a9002023a8000000000085
:102fcc0000198000610060000000e000fcff32008e
:102fdc00448ea900001880000100370080322200c6
:082fec000080fa00000006005d
:020000040000fa
:102ff4003c130000b8000000820000005365740018
:1030040075702000436f6d00706c6500746520005e
:103014002d204200656769006e6e69006e672000ae
:103024004d6169006e205000726f670072616d001f
:103034000042610074746500727920004c6576006a
:10304400656c20003d203a0025640a0000536500a9
:10305400747469006e672000436c6f00636b20001a
:10306400746f20004869670068205300706565002c
:1030740064203600304d490050530000436c6f000b
:10308400636b2000436861006e67650020436f0036
:103094006d706c0065746500202d20004643590056
:1030a40020616e006420550041525400205370008a
:1030b400656564002052650064656600696e65009c
:1030c4006400530065747400696e670020436c00eb
:1030d4006f636b0020746f00204c6f0077205300e7
:1030e40070656500642037002e384d004950530048
:1030f400000000006c100000d002000080000000fe
:10310400001000005800000080000000581000006b
:103114000e0000008200000000004800426e000023
:10312400005a620002005a00620200006a100000a5
:1031340002000000820000008025000066100000ec
:103144000400000080000000f41300008800000068
:103154008200000001000000001a14001b141a0071
:10316400141a14001a141a00140a1400000000009f
:10317400000000000000000000000000000000004b
:1031840000000000000000000002080001014200ed
:103194001443140042144200144214004214320036
:1031a4001400000000000000000000000000000007
:1031b4000000000000000000000000000000020009
:1031c400080202006a146b00146a14006a146a008c
:1031d400146a14005a1400000000000000000000eb
:1031e40000000000000000000000000000000000db
:1031f40000000000f4131c0014441400000000003c
:103204000000000000000000000000009e14000008
:103214001a00000082000000686a6c00747a4c0096
:10322400000001000002000004000800001000007b
:10323400000020002b2d230030000000c0140000eb
:103244000200000080000000b81400000400000028
:10325400820000000600000000000000bc14000012
:1032640004000000800000007c1400002200000024
:1032740082000000303132003334350036373800f4
:1032840039414200434445004600300031323300a6
:10329400343536003738390061626300646566008e
:1032a40000000000c21400000200000082000000c0
:1032b40001000000c41400000200000080000000af
:0432c4000000000006
:020000040000fa
:1032c8000000fa00c1e1a800c1a1a900000e800019
:1032d80000a0a10000b0a10000c0a100000e88005d
:1032e800000e80000080a1000090a100000e880060
:1032f800000e80000040a1000050a1000060a10065
:10330800000e8800c041a900000e80000000a10046
:103318000010a100000e8800c3e1a900c3c1a800e5
:10332800100e800000b0a10000c0a10000d0a100d4
:10333800100e8800100e80000090a10000a0a100cf
:10334800100e8800c301a900c281a900c1e5a80028
:10335800c1a5a900002e800000a0a10000b0a10016
:1033680000c0a100002e8800002e80000080a1006f
:103378000090a100002e8800002e80000040a100cf
:103388000050a1000060a100002e8800c045a900df
:10339800002e80000000a1000010a100002e88006f
:1033a800c3e5a900c3c5a800102e800000b0a10085
:1033b80000c0a10000d0a100102e8800102e8000af
:1033c8000090a10000a0a100102e8800c305a9004c
:1033d800c285a9000080fa00000006000000fa007b
:1033e80001eca90001aca900016ca900014ca800de
:1033f800106080000000a1000010a1000020a100c2
:1034080010608800206180000000a0000010a0006b
:1034180020618800c057210020608800c057210023
:1034280040638800c057210040648800618ca9006f
:10343800616ca900614ca900612ca900610ca9006c
:10344800600ca80063eca80063cca900106380009e
:1034580000a0a00000b0a0001063880063aca80022
:10346800818ca900816ca900814ca900812ca9003c
:10347800810ca900800ca80083eca80083cca900cb
:103488001064800000a0a00000b0a00010648800b4
:1034980083aca80001eca8000080fa000000060038
:1034a8000000fa00a134800000fc2f0000806000ba
:1034b8000000a000a034880082202000f1f52f0031
:1034c80000c82c00c2f4070023c2a90050f42f0042
:1034d8009bf407000000eb000080fa0000000600e3
:1034e8000000fa0021e2a90021a2a9002182a90076
:1034f8002162a800001180000080a1000090a100b6
:103508000011880020e2a90020c2a90020a2a90079
:103518002082a9002062a900001180000010a100eb
:103528000020a100001188002002a90023e2a900c0
:1035380023a2a90023c2a9002362a9002342a8004c
:10354800101180000060a1000070a1001011880017
:1035580022a2a9002222a900308380004183800092
:1035680000007800401188002136800000f82f0004
:10357800808060002006200001007000203688004e
:10358800a134800000fc2f00008060000000a00033
:10359800a03488000188a9002188a9003042800051
:1035a8000000a0000010a1000020a0003042880008
:1035b80021e2a8000000eb000080fa0000000600ed
:020000040000fa
:1035c800f03fb1000180b10006003500ee030900ac
:1035d80000000000403fb1000180b100fbff3d004a
:1035e8001000b000203fb000020035000080090044
:0835f8000000000000000600c5
:020000040000fa
:0200000401f009
:04000800cfffff0027
:020000040000fa
:0200000401f009
:04000c00f9ffff00f9
:020000040000fa
:0200000401f009
:040010007fffff006f
:020000040000fa
:0200000401f009
:040014007fffff006b
:020000040000fa
:0200000401f009
:04001c00dfffff0003
:00000001FF
